:020000040000FA
:200000000FEF00F0FFFFFFFF24EF14F01200FFFFFFFFFFFFFFFFFFFF2CEF14F01200E4EFD3
:2000200000F0D29E600E3901D96F000EDB6F000EDD6F080EDF6F000EDE6F000E3A01406F07
:20004000000E506F000E606FC268C368C468000EBA6E000EBB6E000EBC6E550EBF6FAA0E87
:20006000BF6F000EBF6F360EB26E010EB56ED80EB16EF00EB06EB2806CEC00F01200000EC5
:20008000156EE6EC09F0FEEC0DF0166E1650D8A41BD00001E951491817E1EA514A1814E1B4
:2000A000EB514B1811E1EC514C18D8A40DD0E551ED190AE1E651EE1907E1E751EF1904E143
:2000C000E851F019D8B406D0010E166E152A020E1564D7D716501200C496C4983A01628721
:2000E000628960976099210E136F220E146F130EE36F140EE46F010E3D01736F000E746FB9
:20010000000E756F6C69738F280E6F6FFE0E706F000E796F390193839385928F93813D0146
:200120007A897A857A87000E506E000E4F6E1200000E066E000E056E03500410D8B41CD031
:20014000010E076E04D0D89003360436072A04AEFAD7D890053606360350015C045002587B
:20016000D8A005D00350015E0450025A0580D89004320332072EEDD7600014F001F06000CA
:2001800018F002F012005750086E600058F109F0940E026E000E016E080E036E000E046EFE
:2001A000020E056E3EEC0BF00A6E0A50D8A406D0A00E0001FC6FA00EFB6F12000B0E000115
:2001C000FC6FAD0EFB6F120000EE00F1570EEE6AE806FDE100EEE5F01A0EEE6AE806FDE106
:2001E00000EE49F0110EEE6AE806FDE1000EF86E0001FBEF00F011EC00F057EC0CF0000E0C
:20020000486E560E4818D8B405D0560E486E90EC0EF0F7D7A6EC0FF011EC01F0D8EC0BF063
:20022000F0D73901A3A50BD03D0176BD02D076AB03D06CEC00F01200A0EC0AF01200A2AF20
:20024000A3B3FAD7A3A11200F7D70400000EF86E0250F76E600007F0F6FF09003CEC01F0B6
:20026000F55012003901E58FE59D000EF66E000EF76E000EF86E1200000EF66E000EF76EA7
:20028000000EF86E1200FFFFFFFFFFFFFFFFFFFFFFFFFFFFFFFFFFFFFFFFFFFFFFFFFFFFF2
:2002A000FFFFFFFFFFFFFFFFFFFFFFFFFFFFFFFFFFFFFFFFFFFFFFFFFFFFFFFFFFFFFFFF5E
:2002C000FFFFFFFFFFFFFFFFFFFFFFFFFFFFFFFFFFFFFFFFFFFFFFFFFFFFFFFFFFFFFFFF3E
:2002E000FFFFFFFFFFFFFFFFFFFFFFFFFFFFFFFFFFFFFFFFFFFFFFFFFFFFFFFFFFFFFFFF1E
:20030000FFFFFFFFFFFFFFFFFFFFFFFFFFFFFFFFFFFFFFFFFFFFFFFFFFFFFFFFFFFFFFFFFD
:2010000000E0075001E1025701E282FD00E5932E01E702FB00E9025800EA825600EE82F903
:2010200000EF82F7000000000000600028F017F0600020F01CF0600024F01DF0400E146EFC
:20104000010E156E600073F0D9FF600077F0DAFFDF501A6E200E0A18D8A4D6D01F0E01016B
:201060004A6F370E4B6F000E486F4969490E4C6F310E4D6F910E4E6FA70E4F6F550E406F53
:20108000170E416F280E426F860E436FEF0E446FCB0E466F0A0E476FA20E456F000E026E60
:2010A000340E016E60005CF003F0046A98EC00F00150200F126E1250B90D6F00CCFF18F094
:2010C0009ED01840E8423F0B030B166E17041B6E1B50D8B44AD01B501C240B6E000E1D2020
:2010E0000C6EFF0E0B24D96EFF0E0C20DA6EDF50196E1B50030B16180B6E0B501424D96EC2
:20110000000E1520DA6EDF5019180C6E18501A180C240D6E600064F00EF00E3AF00E0E1609
:201120001A38E8461F0B0E180F6E600068F010F0D8901036D89010361938E842070B101899
:201140000F240D18116E1B501C24D96E000E1D20DA6E1150DF5E1B501C24D96E000E1D2058
:20116000DA6EDF501A6E1B06B3D717501C240B6E000E1D200C6EFF0E0B24D96EFF0E0C2024
:20118000DA6EDF50196E1B50030B16180B6E0B501424D96E000E1520DA6EDF5019180C6EF2
:2011A00018501A180C240D6E600064F00EF00E3AF00E0E161A38E8461F0B0E180F6E600021
:2011C00068F010F0D8901036D89010361938E842070B10180F240D18116E600073F0D9FF34
:2011E000600077F0DAFF1150DF5E600073F0D9FF600077F0DAFFDF501A6EB90E185E18501A
:20120000D8A45FD7010E01D0000E136E1350120001012E511E6E2F51446E600078F045F0FC
:20122000400E445C280E4558D8A004D0940E455CD8A006D00B0E0001FC6FAD0EFB6F120054
:2012400044500001F1190BE14550F219D8A407D06000CCF358F06000D0F359F006D0600007
:2012600060F1F3F0600064F1F4F0600010F1F1F0600014F1F2F01F0E44141E6E000E4514A0
:201280001F6E1E501F10D8A42BD0000E466E2E0E4624D96EDA6A010EDA22000E4624E16EE8
:2012A000E26A010EE2226F007FFFE7FF462A110E4664EDD7000E466E020E4624D96EDA6A38
:2012C000010EDA22DF501E6E1E50581A462A0F0E4664F2D7A00E0001FC6FA00EFB6F120024
:2012E000000E466E020E4624D96EDA6A010EDA22200E4624E16EE26A000EE2226F007FFFEA
:20130000E7FF462A0F0E4664EDD7000E466E300E4624D96EDA6A010EDA2246501E6E1F6A41
:20132000100E1E26000E1F22200E1E24E16E000E1F20E26E6F007FFFE7FF462A0F0E466496
:20134000E6D7200E086E000E096E200E0A6E15EC08F0436E4304D8A422D0010101516000EE
:2013600000F41EF01F6A600078F01FF01E6A1E26000E1F22000E1E24406E6C0E1F20416E8A
:20138000600000F101F0600004F102F0200E036E000E046E200E056E3EEC0BF0426E4304E8
:2013A000D8A448D74250D8A445D7000E466E300E4624D96EDA6A010EDA22DF501E6E1E503F
:2013C000581A462A0F0E4664F2D784D7930E026EFC0E016E110E036E000E046E000E066E24
:2013E000040E056ED6EC0FF0600048F009F00A6A0B6A0C6A600028F00CF0600024F00BF0D4
:201400000A6A096A600044F00DF00E6A0F6A106A600034F010F00F6A0E6A0D6A09500D2473
:20142000496E0A500E204A6E0B500F204B6E0C5010204C6E145060004CF009F00A6A0B6A4A
:201440000C6A60002CF00CF0600028F00BF0600024F00AF0096A09240D6E000E0A200E6EEE
:20146000000E0B200F6E000E0C20106E49500D24496E4A500E204A6E4B500F204B6E4C50DE
:2014800010204C6EFF0E026EFC0E016E110E036E000E046E000E066E040E056ED6EC0FF094
:2014A000600048F009F00A6A0B6A0C6A600028F00CF0600024F00BF00A6A096A600044F0DE
:2014C0000DF00E6A0F6A106A600034F010F00F6A0E6A0D6A09500D240001ED6F0A500E2049
:2014E000EE6F0B500F20EF6F0C501020F06F145060004CF009F00A6A0B6A0C6A60002CF0E8
:201500000CF0600028F00BF0600024F00AF0096A09240D6E000E0A200E6E000E0B200F6E69
:20152000000E0C20106EED510D24ED6FEE510E20EE6FEF510F20EF6FF0511020F06F1200AF
:20154000000E0F6E3D016C6978B103D03901A2AF07D06F00A8F50FF03901A29F010E01D029
:20156000000E106E3D0177A94FD079A505D079953901A3933D01788579A726D07997390156
:20158000A393140E5324D96EDA6A010EDA226F00B7F5DFFF532A0BEC0FF0030E536E39016E
:2015A000A3913D0178854FB20AD0140E5324D96EDA6A010EDA22DF506B6F532A01D06B6987
:2015C000050EE82EFED700F03D0176A906D076993901A3953D01788542D03901A3A13FD08F
:2015E000A3914FB20ED0190E53600BD0140E5324D96EDA6A010EDA22DF503D016B6F532A30
:201600002ED03D016B692BD079A711D079973901A393000E536E140E5324D96EDA6A010E3C
:20162000DA226F00B7F5DFFF532A4F8610D01050D8B40DD0140E5324D96EDA6A010EDA228B
:2016400060003FF0DFFF190E536001D0532A3D0179B54FA604D04F96799543EC0DF0000E93
:201660003D01766F000E796F000E3901A36F3D01739973A912006CEC00F01200000E000116
:20168000E16F000EE06F000EE46F10D0E4510324D96E000E0420DA6EA00EE425E16EE26AED
:2016A000000EE2226F007FFFE7FFE42B0550E45DD8A0ECD7000EE26F000EE36F0400000E94
:2016C000F86E0250F76E600007F0F6FF000E0001E46F0ED00150E425F66EA00EE425D96EA5
:2016E000DA6A000EDA22DF50F56E0C000001E42B0550E45DD8A0EED73901E58FE59DE58581
:20170000550EE66FAA0EE66FE58313D0E40E00D000D0E82EFCD700D000D00001E04BE12B66
:201720002C0EE05D010EE159D8A003D0010EE36F03D03901E5B3EAD73901E595000EF86EAF
:201740000250F76E600007F0F6FF000E0001E46F1FD00900600E0001E425D96EDA6A000E1B
:20176000DA226F00D7FFDFFFA00EE425D96EDA6A000EDA22600EE425E16EE26A000EE222DA
:20178000DE50E618D8B403D0020EE36F05D0E42B0550E45DD8A0DDD7E351D8B404D0E22B15
:2017A000020EE26589D73CEC01F00001E35112004FA412004FA012004F944F90000E00013B
:2017C000FC6F000EFB6F62D0FD05FE11D8A42BD0000E0101586FBA0E576F010E556E000E27
:2017E0000001F66F000EF56F940E076E000E066EFF0E096E0868D4EC0EF0476E4750D8A4FE
:2018000012D0A00E0001FC6FA00EFB6F000E596E000E586E000EF46F000EF36F000EF26FBB
:20182000000EF16F12000B0E0001FC6FAD0EFB6F1200000EF66F000EF56F08EC09F0120088
:2018400058505618F0E159505718D8A4ECD7000E0101586FFB0E576F000E556E000E0001C4
:20186000F66F000EF56FC3EC00F01200050EF719DAE1050EF819D8A4D6D7FF001200F905A6
:20188000FA11D8A4D0D7010E546E12005250E20AD8B49AD7070AD8B4CCD70F0AD8B4D0D720
:2018A000040AD8B4ECD7010AD8B4E0D7BCD732EC01F0000E0101586FFB0E576F000E000126
:2018C000FE6F000EFD6F000EFC6F000EFB6F000E596E000E586E000E576E000E566E000ED4
:2018E000F86F000EF76F000EF26F000EF16F000EF46F000EF36F000EFA6F000EF96F000E54
:20190000F66F000EF56F000E546E000E556E000E096E2E0E0924D96EDA6A010EDA22FF0EBE
:20192000DF6E092A110E0964F4D7060E0101506F420E516F4C0E526F3A0E536F1F0E026E29
:20194000F90E016E540E036E010E046E000E066E030E056ED6EC0FF0000E496E000E4A6E6B
:20196000000E4B6E000E4C6E010E0001ED6F000EEE6F000EEF6F000EF06F020EE96F000EB2
:20198000EA6F000EEB6F000EEC6F030EE56F000EE66F000EE76F000EE86F12004F90000E8D
:2019A000056E0550020D6F00CCFF01F06F00D0FF02F0D89001360236010E0124F66E100E68
:2019C0000220F76E0800F5500101156301D004D0052A080E0564E5D70550020D6F00CCFF0C
:2019E00001F06F00D0FF02F0D89001360236010E0124F66E100E0220F76E09006F00D4FF67
:201A000003F009006F00D4FF04F0600010F003F0046A0350516E0550020D6F00CCFF01F032
:201A20006F00D0FF02F0D89001360236010E0124F66E100E0220F76E08006F00D4FF52F0D6
:201A40000550020D6F00CCFF01F06F00D0FF02F0D89001360236020E0126000E0222010E78
:201A60000124F66E100E0220F76E09006F00D4FF4DF00A006F00D4FF4EF07F0E51641200D2
:201A80004F80519E12004F925350FD0F0D6ECEEC0CF0000E0001FC6F000EFB6F4FA004D000
:201AA00051500D18D8B402D04F821200140E016E010E026E5304036E75EC0FF00C6E130E4C
:201AC0005324D96EDA6A010EDA220C50DE18D8A4EBD74F84020E51642AD0000E0E6E12D06B
:201AE000170E0E24D96EDA6A010EDA22600037F1E1FF60003BF1E2FF6F007FFFE7FF4D4ABA
:201B00004E2A0E2AFF0E066EFF0E076E5150086E096A06500826075009220E500A6E0B6A37
:201B200008500A5C09500B58D8B01200D9D7000E0E6E12D0160E0E24D96EDA6A010EDA2289
:201B4000600037F1E1FF60003BF1E2FF6F007FFFE7FF4D4A4E2A0E2A51500E5CD8B01200F1
:201B6000E9D7940E076E000E066EFF0E096E0868D4EC0EF02A6E2A50D8A41200000E266E18
:201B8000940E276E000E286E000E296E280E256E000E246E2CD0600090F001F0600094F0AB
:201BA00002F0140E036E000E046E000E066E100E056ED6EC0FF0600098F001F060009CF087
:201BC00002F0140E036E000E046E100E056E3EEC0BF02A6E2A50D8A41200100E2626000E32
:201BE000272228222922100E2426000E2522295004E12804D8B01200CED71200000E056EEE
:201C0000280E076E400E066E940E046E400E036E000E0001E96F000EEA6F000EEB6F000E40
:201C2000EC6F000EE56F000EE66F000EE76F000EE86F29D0600018F001F060001CF002F00B
:201C400025EC01F0086E60000CF001F0600010F002F025EC01F0096E064A072A034A042AF8
:201C600008500001E927000EEA23EB23EC230950E527000EE623E723E82309500818D8B42D
:201C800002D0010E056EFC0E065C930E0758D8A0D1D705501200280E076E000E066E930E2F
:201CA000096E0868D4EC0EF0286E2850D8A41200280E276E000E266E940E256E000E246EA1
:201CC0002AD0600090F001F0600094F002F0140E036E000E046E000E066E100E056ED6EC7B
:201CE0000FF0600098F001F060009CF002F0140E036E000E046E100E056E3EEC0BF0286ECF
:201D00002850D8A41200100E2626000E2722100E2426000E2522940E275CD8B01200D1D7D8
:201D2000000E2C6E3FEC00F02B6E2B50D8A404D0040020EF14F00FD00001E551ED190BE15D
:201D4000E651EE1908E1E751EF1905E1E851F019D8B44BEC0EF02C2A020E2C64E3D7000E75
:201D60002C6E3FEC00F02B6E2B50D8A404D0040020EF14F00FD00001E95149180BE1EA5191
:201D80004A1808E1EB514B1805E1EC514C18D8B4B1EC0DF02C2A020E2C64E3D7BF0E00012E
:201DA000FC6FBF0EFB6F12001368600018F00EF060001CF00FF0106A116A1BD0000E126EB5
:201DC000600038F001F060003CF002F041EC0FF0136E1350D8B404D0122A020E1264F0D713
:201DE0001350D8A416D0400E0E26000E0F221022112208500A6E09500B6E0C6A0D6A0E500B
:201E00000A5C0F500B5810500C5811500D58D8B0D5D7135012004F92CEEC0CF05150D8A4B3
:201E200002D04F821200000E076E13D0600037F1D9FF60003BF1DAFF140E5324E16EE26A8E
:201E4000010EE2226F007FFFE7FF532A4D4A4E2A072A5150075CD8A0E9D7140E016E010E03
:201E6000026E60004CF103F075EC0FF0066E140E5324D96EDA6A010EDA2260001BF0DFFF16
:201E80001200000E056E000E046E000E036E0400000EF86E0250F76E600007F0F6FF3901FB
:201EA000E58FE59DE585E589550EE66FAA0EE66FE58312D0E40E00D000D0E82EFCD700D0FA
:201EC00000D0034A042A2C0E035C010E0458D8A003D0010E056E03D03901E5B3EBD7390145
:201EE000E5953CEC01F005501200000E056E29D00306800E046E05AE09D00550020D6F0006
:201F0000CCFF05F00550070A056E05D00550020D6F00CCFF05F0600007F0D9FF60000BF036
:201F2000DAFFDF5004140009D8B403D00550070A056ED8900430046E0450D8A4DCD7014A64
:201F4000022A0350D8A4D4D7055012003901A4A11200A491D80EB16EF00EB06E5404D8A4B9
:201F600004005550D8B412000001F54BF62B700EF55D170EF659D8A01200000EF66F000E69
:201F8000F56F000E556E0B0EFC6FAD0EFB6F000E0101586FFB0E576F940E076E000E066E24
:201FA000FF0E096E0868D4EC0EF012000400000EF86E0250F76E600007F0F6FF000E086E5E
:201FC000000E076E0ED0090060000FF0D9FF600013F0DAFF6F00D7FFDFFF034A042A074A35
:201FE000082A0550075C06500858D8A0ECD73CEC01F01200FFFFFFFF03413032FFFFFFFF3D
:20200000FFFFFFFFFFFFFFFFFFFFFFFFFFFFFFFFFFFFFFFFFFFFFFFFFFFFFFFFFFFFFFFFE0
:20202000FFFFFFFFFFFFFFFFFFFFFFFFFFFFFFFFFFFFFFFFFFFFFFFFFFFFFFFFFFFFFFFFC0
:20204000FFFFFFFFFFFFFFFFFFFFFFFFFFFFFFFFFFFFFFFFFFFFFFFFFFFFFFFFFFFFFFFFA0
:20206000FFFFFFFFFFFFFFFFFFFFFFFFFFFFFFFFFFFFFFFFFFFFFFFFFFFFFFFFFFFFFFFF80
:020000040020DA
:020000040030CA
:0A0000008CFF7FF7EAC7FFFFFFFF48
:00000001FF